{
  "contractName": "Sticker",
  "abi": [
    {
      "constant": true,
      "inputs": [],
      "name": "imagePath",
      "outputs": [
        {
          "internalType": "string",
          "name": "",
          "type": "string"
        }
      ],
      "payable": false,
      "stateMutability": "view",
      "type": "function"
    },
    {
      "constant": false,
      "inputs": [
        {
          "internalType": "string",
          "name": "_imagePath",
          "type": "string"
        }
      ],
      "name": "setSticker",
      "outputs": [],
      "payable": false,
      "stateMutability": "nonpayable",
      "type": "function"
    }
  ],
  "bytecode": "0x60e0604052602e6080818152906103b860a039805161002691600091602090910190610039565b5034801561003357600080fd5b506100d4565b828054600181600116156101000203166002900490600052602060002090601f016020900481019282601f1061007a57805160ff19168380011785556100a7565b828001600101855582156100a7579182015b828111156100a757825182559160200191906001019061008c565b506100b39291506100b7565b5090565b6100d191905b808211156100b357600081556001016100bd565b90565b6102d5806100e36000396000f3fe608060405234801561001057600080fd5b50600436106100365760003560e01c80632c0545641461003b578063a44db015146100b8575b600080fd5b610043610160565b6040805160208082528351818301528351919283929083019185019080838360005b8381101561007d578181015183820152602001610065565b50505050905090810190601f1680156100aa5780820380516001836020036101000a031916815260200191505b509250505060405180910390f35b61015e600480360360208110156100ce57600080fd5b8101906020810181356401000000008111156100e957600080fd5b8201836020820111156100fb57600080fd5b8035906020019184600183028401116401000000008311171561011d57600080fd5b91908080601f0160208091040260200160405190810160405280939291908181526020018383808284376000920191909152509295506101ee945050505050565b005b6000805460408051602060026001851615610100026000190190941693909304601f810184900484028201840190925281815292918301828280156101e65780601f106101bb576101008083540402835291602001916101e6565b820191906000526020600020905b8154815290600101906020018083116101c957829003601f168201915b505050505081565b8051610201906000906020840190610205565b5050565b828054600181600116156101000203166002900490600052602060002090601f016020900481019282601f1061024657805160ff1916838001178555610273565b82800160010185558215610273579182015b82811115610273578251825591602001919060010190610258565b5061027f929150610283565b5090565b61029d91905b8082111561027f5760008155600101610289565b9056fea265627a7a72315820edc0d03a5a239efcec69eac7834af2eab22b87ad40e052281115e4142692121e64736f6c63430005100032516d53456e364c5a59793469665352665953586f4332794a4a585a4e6f65387a6631684e717454526b556f533275",
  "source": "// SPDX-License-Identifier: UNLICENSED\npragma solidity 0.5.16;\n\ncontract Sticker{\n    string public imagePath=\"QmSEn6LZYy4ifSRfYSXoC2yJJXZNoe8zf1hNqtTRkUoS2u\";\n    function setSticker(string memory _imagePath) public{\n        imagePath = _imagePath;\n    }\n}\n",
  "sourcePath": "/Users/vaibhavchopra/code/celo-india-fellowship/cif-week-1/ipfs-dapp/src/contracts/Sticker.sol",
  "compiler": {
    "name": "solc",
    "version": "0.5.16+commit.9c3226ce.Emscripten.clang"
  },
  "schemaVersion": "3.4.1",
  "updatedAt": "2021-06-17T12:49:04.405Z",
  "networkType": "ethereum",
  "devdoc": {
    "methods": {}
  },
  "userdoc": {
    "methods": {}
  }
}